:040000000C946D02ED
:100004000C94E90A0C94190B0C9400000C94000055
:100014000C945A0B0C9400000C948C0B0C94000060
:100024000C9400000C948D0B0C9400000C940000B4
:100034000C9400000C9400000C9400000C9400003C
:100044000C9400000C9400000C9400000C9400002C
:100054000C9400000C9400000C9400000C9400001C
:100064000C9400000C94A00B0C9400000C94000061
:100074000C9400000C947C0A0C9400000C94E80A84
:100084000C9400000C9400001010101010101010AC
:1000940018181818181818181C1C1C1C1C1C1C1CBC
:1000A4001E1E1E1E1E1E1E1E001B1B1B1B1B1B00BA
:1000B40000080C0E0E0C080006150D060D150600A2
:1000C4001027E80364000A0001000010000110007A
:1000D40001005CC1320032000100010000008813FD
:1000E40050C300000000426C7565746F6F74682023
:1000F400506C61796572002A3C2A2020202020203F
:1001040020202020203E2000203C202020202A20C7
:100114002A20202020203E2000203C2020202020B7
:100124002020202020202A3E2A00202020202020B9
:1001340020202020202020202020002D003E003CD4
:1001440000566F6C756D653A202564200054726505
:10015400626C653A2025642000547265626C653ACD
:10016400202B25642000426173733A20256420000B
:10017400426173733A202B25642000496E707574B4
:100184003A20202020312032203320004761696E3C
:100194003A202020203020206462202000332E3298
:1001A400352020372E35202031312E32350047615D
:1001B400696E3A202B20332E3235646220200020D1
:1001C4002030202020372E35202031312E323500AA
:1001D4004761696E3A202B20372E35206462202037
:1001E400002020302020332E3235202031312E3291
:1001F40035004761696E3A202B31312E3235646205
:100204002020002020302020332E3235202020379B
:100214002E323500202020202020332E323500308D
:10022400004C6F75646E6573733A003E204F4E2028
:100234003C20202020204F4646200020204F4E20E6
:10024400202020203E204F4646203C004C6566740A
:10025400202564005269676874002D2D2D2D2D2DE5
:100264002D2D2D2D2D2D2D2D0046726F6E742025D4
:1002740064005265617200202020426C7565746FC1
:100284006F7468002020202020456E61626C650038
:100294002020202044697361626C650042726967A2
:1002A40068746C6573733A20256420004F70617321
:1002B4006974793A202564200020204C65736B69A9
:1002C40076002020202050726F64756374696F6E0D
:1002D400004D41004D45004D44004F766572666CFB
:1002E4006F7700435900417564696F2070726F63C2
:1002F4006573736F72004572726F723A2061647233
:10030400657373004572726F722077697468206236
:1003140075730020202020204E6577416D700020E9
:10032400204669726D7761726520332E310080C07A
:100334000200720BD6000100810BD8000100820B71
:10034400DA0001008B0BDC000100910BDE001100D0
:100354000009EA0011001109FB00110022090C0137
:10036400110033091D01110044092E011100550922
:100374002E01020066093F01020068093F010200E4
:100384006A093F0102006C093F0102006E093F0146
:10039400020070090A010200720941010200740995
:1003A4004301020076090A01020078090A010200E9
:1003B4007A090A0111007C097F0111008D0990015D
:1003C40011009E09A1011100AF09B2011100C00979
:1003D400C3011100D109D4011100E209E5011100A2
:1003E400F309F6011100040A07021100150A90012D
:1003F4000B00260A18021100310AB2010200420A57
:1004040023020A00440A250210004E0A2F0211009A
:100414005E0A3F0206006F0A58020200750A3F0195
:100424000200770A3F010F00790A5E020500880A7C
:10043400760205008D0A76020500920A7602020011
:10044400970A3F010200990A3F010F009B0A5E02CE
:100454000D00AA0A7B020C00B70A88020C00C30A2A
:1004640094020900CF0ABD020F00D80AC602030095
:10047400E70AD5020300EA0AD5020300ED0AD8020E
:100484000300F00AD5020300F30ADB020900F60AAE
:10049400DE020300FF0AE7021000020BEA020E006C
:1004A400120BFA021000200BEA020F00300B0803B3
:1004B4000C003F0B17030F004B0B230309005A0BCF
:1004C400BD020F00630BC6020A000400E000020034
:1004D400BB0B32030000F894EE27ECBBF1E0F5BF50
:1004E400E5BFE0936C00F8E1F1BDE1BD8DE0A2E071
:1004F400BB27ED938A95E9F780E090E1A0E0B1E0B5
:10050400ED930197E9F7E4E3F3E085919591009782
:1005140061F0A591B59105901590BF01F00105908A
:100524000D920197E1F7FB01F0CFEFEFEDBFE0E1B2
:10053400EEBFC0E0D9E00C94510CAA931A930A932D
:10054400EA81EE0FEE0FEE0FE0640E2F10E018308C
:1005540068F40A930395EC81FD813196EC83FD8365
:100564003197A4910E94000E1F5FF1CF1981088179
:10057400259608950E94190EA0E0B9E00E944D103E
:100584000E94541059F4A1E1B9E00E94591011F4E9
:10059400A4E001C0A5E00E942B0E1DC0E130A0E044
:1005A400FA0759F4A2E2B9E00E94591011F4A4E048
:1005B40001C0A5E00E942B0E0EC0E230A0E0FA07B5
:1005C40051F4A3E3B9E00E94591011F4A4E001C06E
:1005D400A5E00E942B0E0895BA93AA931A930E9441
:1005E4006310A4E4B9E00E944D10A981BA81E5E04A
:1005F400F0E00E9449121E2F103029F0AFEF0E9444
:100604002B0E1150F9CFA981BA81E5E0F0E00E94E8
:1006140061121E2FE12F0E94681011F4A0E011C096
:10062400E230A0E0FA0711F4A1E00BC0E330A0E04F
:10063400FA0711F4A2E005C0E430A0E0FA0719F4C7
:10064400A3E00E942B0E188123960895AA931A936F
:100654000A930E946310A5E5B9E00E944D10AA8197
:10066400A130DCF41B811F701F3049F000E001173A
:1006740030F4A6E6B9E00E944B0E0F5FF8CF0E945B
:100684006D101B811F700FE0101730F4A8E6B9E05D
:100694000E944B0E0150F8CF22C01B811F70EFE067
:1006A400E11B1E2F00E0073030F4AAE6B9E00E94F7
:1006B4004B0E0F5FF8CF00E0011730F4ACE6B9E061
:1006C4000E944B0E0F5FF8CF0E946D1000E00730C0
:1006D40030F4AEE6B9E00E944B0E0F5FF8CF1981FB
:1006E400088124960895AA93EBE0E51549F4A091B6
:1006F400820B4A1629F0CC24DD244092820B3ADF87
:10070400552009F099C4E0918A0BE03039F0EEE00D
:100714000E947310A6E00E942B0E08C0EEE00E9417
:100724007310A0E7B9E00E944B0E86C4E091800BE1
:10073400A091810B0E943F12A881EA2B91F1CC2455
:10074400DD24E091800BE03069F0EDE00E9473104D
:10075400A2E7B9E00E944B0EEFE00E947310A4E7F9
:10076400B9E00CC0EDE00E947310A6E7B9E00E9466
:100774004B0EEFE00E947310A8E7B9E00E944B0E05
:10078400A091800BE0E00E943A120E2EA091810B02
:100794000E94771011F00E947C10E091800BE0938E
:1007A400810BE42DA091820B0E943F12A881EA2BB9
:1007B400D1F0E091800BE03041F4EEE00E9484102F
:1007C400AAE7B9E00E944B0E37C4CC24DD24EEE046
:1007D4000E948410442011F0A5E001C0A4E00E940E
:1007E4002B0E4092820B28C41A930E94190EA091DA
:1007F400830BEFE3EA1B1E2F0E948810E5E4F1E06F
:10080400FA93EA93E091830B0E948D10A091830BDD
:10081400BB27E2DEE091830BEF73E093830B0E942E
:100824009A100E949F1031F00C9B03C0A12F0E94CC
:10083400FC1103C0A12F0E94FC110E94D711A1E05A
:1008440052DF34C31A930A930E94190EE091840B69
:100854000E94A81019F402EF10E761C0E130A0E093
:10086400FA0719F404EF11E75AC0E230A0E0FA07DE
:1008740019F406EF12E753C0E330A0E0FA0719F4C5
:1008840008EF13E74CC0E430A0E0FA0719F40AEFCC
:1008940014E745C0E530A0E0FA0719F40CEF15E7BA
:1008A4003EC0E630A0E0FA0719F40EEF16E737C0B1
:1008B400E730A0E0FA0719F400E017E730C0E830A9
:1008C400A0E0FA0719F402E01EE729C0E930A0E02D
:1008D400FA0719F404E01DE722C0EA30A0E0FA07A1
:1008E40019F406E01CE71BC0EB30A0E0FA0719F48A
:1008F40008E01BE714C0EC30A0E0FA0719F40AE0A2
:100904001AE70DC0ED30A0E0FA0719F40CE019E77E
:1009140006C0EE30A0E0FA0711F40EE018E701304B
:1009240034F40E948810E1E5F1E00E94AB1001303C
:1009340034F00E948810EDE5F1E00E94AB100E94B3
:10094400B7100E94C01054C41A930A930E94190E3F
:10095400E091850B0E94A81019F402EF10E661C023
:10096400E130A0E0FA0719F404EF11E65AC0E230CE
:10097400A0E0FA0719F406EF12E653C0E330A0E052
:10098400FA0719F408EF13E64CC0E430A0E0FA07C4
:1009940019F40AEF14E645C0E530A0E0FA0719F4AB
:1009A4000CEF15E63EC0E630A0E0FA0719F40EEFAE
:1009B40016E637C0E730A0E0FA0719F400E017E6BE
:1009C40030C0E830A0E0FA0719F402E01EE629C0BE
:1009D400E930A0E0FA0719F404E01DE622C0EA3089
:1009E400A0E0FA0719F406E01CE61BC0EB30A0E017
:1009F400FA0719F408E01BE614C0EC30A0E0FA078B
:100A040019F40AE01AE60DC0ED30A0E0FA0719F473
:100A14000CE019E606C0EE30A0E0FA0711F40EE08F
:100A240018E6013034F40E948810EAE6F1E00E94EE
:100A3400AB10013034F00E948810E4E7F1E00E942A
:100A4400AB100E94B7100E94C010D2C31A930E9428
:100A5400190E0E946310E091880BE470E093880BF8
:100A6400E091870BE871E093870BE091860BE370CC
:100A7400E093860BE0E00E947310ACE7B9E00E94BB
:100A84004B0EE091860B0E94A81011F4EAE00BC013
:100A9400E130A0E0FA0711F4ECE005C0E230A0E098
:100AA400FA0729F4EEE0EA93A1E00E94080EA9ED0A
:100AB4000E942B0E0E94C5100E94C010F7C11A9309
:100AC4000E94190EE091860BE370E093860B0E945E
:100AD400A81071F50E94D010E831A0E0FA0739F4AB
:100AE400ADE8B9E00E944D10AEE9B9E01EC0E031B6
:100AF400A0E0FA0739F4AFEAB9E00E944D10A0EC87
:100B0400B9E013C0E830A0E0FA0739F4A1EDB9E088
:100B14000E944D10A2EEB9E008C0309741F4A3EF53
:100B2400B9E00E944D10A4E0BAE00E944B0E35C01B
:100B3400E130A0E0FA0721F0E230A0E0FA0769F51D
:100B44000E94D010E831A0E0FA0749F4A5E1BAE028
:100B54000E944D10A6E2BAE00E944B0E1EC0E03186
:100B6400A0E0FA0761F4A1E3BAE00E944B0EE7E0CB
:100B74000E948410A2E4BAE00E944B0E0EC0E8303A
:100B8400A0E0FA0721F4E0E1E093870BDBCF309794
:100B940021F4E0E1E093870BD5CF0E94C5100E94B9
:100BA400C01084C11A930E94190EA4E4BAE00E94F2
:100BB4004D10E091880BE03019F4AEE4BAE002C0C5
:100BC400AEE5BAE00E944B0E0E94C5100E94C01010
:100BD4006DC10E94D41014F4212F3FE110918C0BAD
:100BE4001F3119F4EFE13E2F2E2F10918C0B103290
:100BF4002CF0EEE3E11B1E2F312F2FE1532F422F58
:100C04000E94DF10E0E5F2E0FA93EA93E32F0E94FA
:100C1400E210E7E00E9473100E94EE100E94F210AE
:100C2400E22F0E94E210EBE00E947310AFE6BAE0FC
:100C34000E944D103030A9F010918C0B113034F01B
:100C4400A5E7BAE00E94F7101550F8CF0E946D1086
:100C5400EE81E03029F0A7E7BAE00E94F710F8CF60
:100C640006C0A9E7BAE00E944B0E0E946D100F3136
:100C74002CF4EFE1E01B0E2F401B501B00918D0B59
:100C840000321CF00F51201B301B0E949A1031308F
:100C940024F0EFE1E31B3E2F01C03FE1213024F0BB
:100CA400EFE1E21B2E2F01C02FE1513024F0EFE1E0
:100CB400E51B5E2F01C05FE1413024F0EFE1E41B4E
:100CC4004E2F01C04FE1A2C00E94D41014F4212F72
:100CD4003FE110918C0B1F3119F4EFE13E2F2E2FC1
:100CE40010918C0B10322CF0EEE3E11B1E2F312FF0
:100CF4002FE1532F422F0F312CF4EFE1E01B0E2F85
:100D0400401B501B00918D0B00321CF00F51201B17
:100D1400301B00918D0B0F3184F40E94DF100E9470
:100D2400FD100E94EE10EDE4F1E00E94AB100E9471
:100D34001111A8E8BAE00E944B0E0F3171F40E9421
:100D4400DF100E94FD100E94EE100E94F2100E941B
:100D54001711ADE8BAE00E944B0E0032D4F0EEE376
:100D6400E01B0E2F0E94DF10EDE6F2E00E94AB10B4
:100D7400A4E9BBE00E944B0EE8E00E9473100E94BD
:100D8400EE100E94F2100E941711A2E9BAE00E942C
:100D94004B0E00918D0B0E33A9F000918D0B013099
:100DA40034F0A7E9BAE00E94F7100550F8CF0E948A
:100DB4006D10EE81E03029F0A9E9BAE00E94F71045
:100DC400F8CF06C0ABE9BAE00E944B0E0E946D104A
:100DD4000E949A10313024F0EFE1E31B3E2F01C052
:100DE4003FE1213024F0EFE1E21B2E2F01C02FE17F
:100DF400513024F0EFE1E51B5E2F01C05FE141308B
:100E040024F0EFE1E41B4E2F01C04FE13F712F713D
:100E14005F714F713068206A506C406EA32F0E943E
:100E2400FC11A22F0E94FC11A52F0E94FC11A42FDB
:100E34000E94FC110E94D7110E94B31227960895B4
:100E44000E94190EAAEABAE00E944D10E0918A0BA2
:100E5400E03019F0A7EBBAE002C0A3ECBAE00E94BC
:100E64004B0E08951A93E9E6E3BFC49AE091890B07
:100E7400E1BF1E2FA12FB0E0E5E0F0E00E945C127C
:100E84001E2FA091890BB0E0EAE0F0E00E945C1212
:100E9400E093B50B0E94DF10E0EAF2E0FA93EA93E4
:100EA400E12F0E948D10A12FBB2796DB1991089585
:100EB4001A930A9300918E0B10918F0B0E942211AA
:100EC400FBBDEABDD801E4E1F0E00E945C128F01B1
:100ED4000E94DF10E0EBF2E0FA93EA93F8010E943B
:100EE40035120E947A1284E00E9400102896A4E928
:100EF400BBE00E944B0ED8016FDB7AC1CC24DD2409
:100F0400E52D0E94A81011F46FDC41C0E130A0E08F
:100F1400FA0711F497DC3BC0E230A0E0FA0711F4C1
:100F240013DD35C0E330A0E0FA0711F48FDD2FC0E4
:100F3400E430A0E0FA0711F4C2DD29C0E530A0E0F6
:100F4400FA0711F42FDE23C0E630A0E0FA0711F40B
:100F540040DE1DC0E730A0E0FA0711F4B5DE17C08B
:100F6400E830A0E0FA0711F46BDF11C0E930A0E02B
:100F7400FA0711F477DF0BC0EA30A0E0FA0711F4A6
:100F840097DF05C0EB30A0E0FA0709F4F3DA08951F
:100F9400AA93E0919B00E072E1F3E881E0939C0066
:100FA4004BC0BA93AA93A1E4F3DFA4E5F1DFA3E273
:100FB400EFDFA881B981AC91EBDFA881B981ED9114
:100FC400A883B983AC91E4DFAAE0E2DFADE0E0DF1F
:100FD40022960895AA93E8810E94A81011F4E0E0F3
:100FE40029C0E130A0E0FA0711F4E4E023C0E230C4
:100FF400A0E0FA0711F4E0E11DC0E330A0E0FA0735
:1010040011F4E0E417C0E430A0E0FA0711F4E4E1DD
:1010140011C0E530A0E0FA0711F4E4E40BC0E630B7
:10102400A0E0FA0711F4E0E505C0E730A0E0FA0714
:1010340019F4E4E5E0936200219608950E942711D3
:10104400E0E0E0938A0BA0E04EDBE0E0E093800B6D
:10105400442408950E943411E1E0E0938A0BA0E057
:1010640042DB0895E0918A0B0E944412A091800B08
:10107400EA2B09F00895F401EC50FE4FA091720B95
:10108400B091730BAE17BF0720F40E942711A3E0A1
:1010940009C00E943411E091910BE03011F0A0E0FE
:1010A40001C0A2E097DF08951A930A93F8940E946E
:1010B4009A10AFE30E94FC11AFE90E94FC11AFEB60
:1010C4000E94FC11AFED0E94FC11AFEF0E94FC11D5
:1010D4000E94D711D898AAE00E944A110E94190EC2
:1010E400AFECBAE00E944D10A8EDBAE00E944B0E9E
:1010F400ACEDB5E00E941412E091830BA1E0B0E0E6
:101104000E944D11A3E0B0E0E091850B0E944D11C7
:10111400A5E0B0E0E091840B0E944D11A7E0B0E09F
:101124000E94D0100E948F12A9E0B0E0E091880BD9
:101134000E944D11ABE0B0E0E0918C0BF0E0E7FDD4
:10114400FFEF0E948F12ADE0B0E0E0918D0BF0E074
:10115400E7FDFFEF0E948F12AFE0B0E0E091860B55
:101164000E944D11A1E1B0E0E091890B0E944D1164
:10117400A3E1B0E00E9422110E948F12A5E1B0E029
:10118400E42D0E944D11A7E1B0E0E0918A0B0E948A
:101194004D11A0E0B0E0E1E00E94971200918E0BA7
:1011A40010918F0B043FE1E01E0744F41BBD0ABD00
:1011B400A1E00E944A110F5F1F4FF4CF0091890BE9
:1011C400112711233AF001BFA1E00E944A110150F6
:1011D4001040F7CFE0E0E3BFC4980E94190EA2E3E9
:1011E4000E944A11E8E1E1BDE8E0E1BDF894FFCFD7
:1011F400099119910895E1E0E51511F4E2E001C0C7
:10120400E1E05E2E28C0E3E0E51511F4E4E001C05E
:10121400E3E05E2E20C0E5E05E2E1DC0E6E0E515AD
:1012240011F4E7E001C0E6E05E2E15C008950895CC
:10123400EBE05E2E10C0E52DF0E0E830A0E0FA0708
:1012440011F4E9E007C0E930A0E0FA0711F4EAE09C
:1012540001C0E8E05E2E52DE0895AA93E091910B5E
:10126400E03011F00C948D0E0E945111E52D0E9476
:101274006810A9F4A881A13051F4A091840BAE3078
:1012840028F4E091840BEF5FE093840B07C0E091B6
:10129400840BE03019F0E150E093840B28C1E23074
:1012A400A0E0FA07A9F4A881A13051F4A091850B1C
:1012B400AE3028F4E091850BEF5FE093850B07C017
:1012C400E091850BE03019F0E150E093850B0FC1FC
:1012D400E330A0E0FA0779F50E949F10A091800BFB
:1012E400EA23E42131F0E1E0E093B60BA7EEBAE0A3
:1012F40058DEA881A13051F4A091860BA23028F4C5
:10130400E091860BEF5FE093860B07C0E091860BBC
:10131400E03019F0E150E093860B0E945611A09141
:10132400B60B0E94771031F0E0E0E093B60BAAEE22
:10133400BAE037DEDCC0E430A0E0FA07A9F4E881C3
:10134400E03051F4A091870BA83128F4E091870B89
:10135400E85FE093870B07C0E091870BE03019F05A
:10136400E850E093870BC3C0E530A0E0FA0799F496
:10137400E881E03041F4E091880BE03019F0E0E0DE
:10138400E093880B07C0A091880BA43019F0E4E027
:10139400E093880BACC0E630A0E0FA07A9F4E8813A
:1013A400E03041F4E0918C0BE03019F0E150E0932F
:1013B4008C0B09C0A0918C0BAE332CF4E0918C0BF8
:1013C400EF5FE0938C0B93C0E730A0E0FA07A9F439
:1013D400E881E03041F4E0918D0BE03019F0E15008
:1013E400E0938D0B09C0A0918D0BAE332CF4E091EA
:1013F4008D0BEF5FE0938D0B7AC0E830A0E0FA0725
:1014040059F4E881E03031F4E0918A0BE03009F0DE
:1014140015DE01C01FDE6BC0E930A0E0FA07B9F4A5
:10142400E881E03051F4A091890BA13028F0E091DB
:10143400890BE550E093890B09C0A091890BAF3F5C
:1014440028F4E091890BEB5FE093890B50C0EA30FC
:10145400A0E0FA07F1F4E881E03069F4A0918E0B82
:10146400B0918F0B0E94A81228F40E9422113A977F
:101474000E945D110DC0A0918E0BB0918F0BA0390D
:10148400E1E0BE0728F40E9422113A960E945D1101
:101494002EC0EB30A0E0FA07A9F4E881E03041F473
:1014A400E0918B0BE03019F0E150E0938B0B09C015
:1014B400A0918B0BA23029F0E0918B0BEF5FE093AE
:1014C4008B0B15C05524A881A13051F4A091830B36
:1014D400AF3328F4E091830BEF5FE093830B07C0F5
:1014E400E091830BE03019F0E150E093830B06DDCB
:1014F4000C948D0E0E946211E091770BE093760BB1
:10150400E091780BE093770BE091790BE093780B03
:10151400E0917A0BE093790BE0919C00E0937A0BD5
:10152400A091760BEDE00E943F120E2EA091770B56
:10153400EAE00E943F12E02909F0A3C1A091780BD0
:10154400AD3479F5A091790BE2E50E943A120E2EA2
:10155400A091790BE2E40E943A12E02919F0E1E04B
:101564004E2E0EC0A091790BE0E50E943A120E2E89
:10157400A091790BE1E40E943A12E02909F0442495
:10158400A091790BA73469F4A0917A0BA13311F4DB
:10159400E0E005C0A0917A0BA33319F4E1E0E093F5
:1015A400800BA091780BA93469F4A091790BA6352E
:1015B40011F4E1E005C0A091790BA93419F4E0E03D
:1015C400E093800BA0E00E9475035BC118950E9414
:1015D400621178940E945111A4E10E944A11E09191
:1015E400910BE03009F04DC1E0916300E17041F0EE
:1015F400A091900BA13021F4A6E90E944A1154DD78
:10160400E0916300F0E0F595E795E17009F0F3DD12
:101614009899F9DD9999FFDD9A9900DE9B9906DE88
:101624009C9905DE9D9904DE9E9905DE2AC10E94DF
:101634006211A4E10E944A11819923C1819BFECFCA
:10164400E091910BE03009F01CC1EBE0E515F9F4F1
:101654000E94541019F4ADEEBAE015C0E130A0E0D8
:10166400FA0759F4A0EFBAE09CDCE1E0E41511F4C8
:10167400442402C0E1E04E2E07C0E230A0E0FA07A5
:1016840019F4A3EFBAE08DDC0E94511101C0552476
:10169400A52DEBE00E943F120E2EE0E00E943F12C7
:1016A400E02911F02BDC03C0A0E00E947503E9C01F
:1016B4000E9462110C9B0AC0E1E04E2E0E949A1017
:1016C400A091830BEFE3EA1BAE2F07C044240E94D2
:1016D4009A100E949F1019F0AFE30E94FC110E941F
:1016E400D711A52DE0E00E943A120E2EEBE00E94E5
:1016F4003A12E02971F00E945611A091800B0E94C9
:10170400771039F0E0918A0BE03019F0A0E00E94E4
:101714007503B7C018950E9462110E94190EA6EFB6
:10172400BAE00E944B0EE0E0F0E0E093B70BF093D8
:10173400B80BE093B90BF093BA0BA3C00E946211EB
:101744001A930A93A091740BB091750BA436E0E040
:10175400BE0728F4A4E7BBE00E94701108C0E0E0D3
:10176400E093740BE093750BAFEFBAE01ADCA09131
:101774008A0BA13061F4A2E7BBE00E947011A09132
:10178400720BB091730B8A169B0608F46BDC00B3E2
:101794001127F8010E9426128F0103701070E09146
:1017A400920BF091930BE017F107C9F0A091920B03
:1017B400B091930B139779F4E1E0F0E0E017F107AF
:1017C40011F4A0E04ADDE2E0F0E0E017F10711F4E3
:1017D400A1E043DD93DB0093920B1093930B552010
:1017E400C9F0F50131965F01EBE0E51551F0ECEB42
:1017F400F2E0EA15FB0520F4AA24BB2455247EDB81
:1018040009C0E8E7F5E0EA15FB0520F4AA24BB24A7
:10181400552474DBC614D704D8F4F60131966F014D
:10182400E1B7AE2FE091890BEA1789F0E1B7E093B5
:10183400B40BE091890BA091B40BEA1740F00E941D
:101844007611E091B40BEF5FE093B40BF2CF17C0C5
:10185400E091B50BA091890BEA1788F4E1B7E09306
:10186400B40BE091B50BA091B40BEA1740F40E94BD
:101874007611E091B40BE150E093B40BF2CF0991EF
:101884001991E991EFBFF991E991B991A9919991D0
:10189400899179916991F990199009901895EFE1DE
:1018A400EABBEFEFE7BBE0E0E1BBEEE0E2B9EAE27E
:1018B400E0936100E8E0E0936400E0E8E4BBEAE17F
:1018C400EBBBE0E0E8BBE2EFE2BBE0E4E3B9E8E075
:1018D400E0936200E3E0E0936500EFEFE5BBE2E84C
:1018E400EFBDE1E0EEBDE0EEF1E0F7BDE6BDFBBD2E
:1018F400EABDE0E0E0938B00E1E0E0938A00E0E100
:10190400E0937D00EEE0E0938700E0EAE093860058
:10191400E0E0E0939B00E8EDE0939A00E6E0E093DA
:101924009D00E0E0E0939800E8E0E0939900EBE0AC
:10193400E0936A00E1E1EABFE3E5E9BFA0E0B0E0DB
:101944000E948312E13029F4A7E1B0E00E948312DF
:1019540001C0E1E0E0938A0BE03011F46FDB02C0D8
:101964000E947C107894A0E10E945C0E0E94190EE3
:10197400ECE8F0E0FA93EA93A0E00E949F02E4E925
:10198400F0E0FA93EA93A1E00E949F02ECE9F0E010
:10199400FA93EA93A2E00E949F02E4EAF0E0FA9349
:1019A400EA93A3E00E949F02ECEAF0E0FA93EA9340
:1019B400A4E00E949F02E4EBF0E0FA93EA93A5E02E
:1019C4000E949F02ECEBF0E0FA93EA93A6E00E94F7
:1019D4009F02E0916300E17061F4E091800BE030DC
:1019E40039F0AFE0B0E0E1E0F0E00E948F1203C014
:1019F400F0CF0E947C10E0E0E093720BE093730B55
:101A0400E093910BE9E6E3BFA2E0E4DAD89AA2E31B
:101A14000E944A110E94C3110E94C8110E94D7114A
:101A24000E94C811E130B9F4A8E80E94FC11E13029
:101A340089F0FDD0A2E0BBE02CD1E0E0EA93A2E083
:101A4400E5D0A2E1BBE025D10E94D711F8940E9411
:101A54007B11FDCF0DC0EBD0A0E2BBE00E944D1086
:101A6400A0E3BBE016D10E94D7110E947B11FDCFE9
:101A7400A0E0B0E00E948312E130F9F0EAE0E093E4
:101A8400830BE093850BEDE0E093840BE8E1E093B6
:101A9400870BE0E0E093880BEFE1E0938C0BE0939D
:101AA4008D0BE1E0E093860BEDE7E093890BECED21
:101AB400F0E00E945D11E0E045C0A1E0B0E00E94CA
:101AC4008312E093830BA3E0B0E00E948312E093BF
:101AD400850BA5E0B0E00E948312E093840BA7E09D
:101AE400B0E00E948312E093870BA9E0B0E00E946B
:101AF4008312E093880BABE0B0E00E948312E09382
:101B04008C0BADE0B0E00E948312E0938D0BAFE04C
:101B1400B0E00E948312E093860BA1E1B0E00E9442
:101B24008312E093890BA3E1B0E00E947F120E942C
:101B34005D11A5E1B0E00E9483124E2EA7E1B0E052
:101B44000E948312E0938A0B5524ECE05E1620F485
:101B54000E9480075394F9CF6AD0AFE3BBE00E94A0
:101B64004D10ABE4BBE00E94891161D0AAE5BBE053
:101B74000E944D10A3E6BBE00E94891155240E94E7
:101B84008007E1E0E093900BFFCFFFCFAA93E881B9
:101B9400E07111F01A9A01C01A98E881E07211F00C
:101BA400199A01C01998E881E07411F0C79A01C02C
:101BB400C798E881E07821F0E0916500E86003C00F
:101BC400E0916500E77FE09365008BE08A95F1F78B
:101BD400C29A8BE18A95F1F7C2988BE18A95F1F765
:101BE4009AC0AA93A881D2DFE881E295E883A8810C
:101BF400CDDF88EC90E00197F1F78DC0AA93A9811D
:101C0400F0DFC09AA881EDDFC0980FC0AA93E881E5
:101C1400F0E0E554F44FE081A981AE0FE2DFE98101
:101C2400E093BF0BE881E093C00B22960895A2E0F5
:101C3400D8DFA3E00E944A11ACE0D3DFA1E0D1DFFA
:101C4400A3E00E944A11E0E0E093C00BE093BF0BD5
:101C54000895AA93A881AA3031F0E091C10BA09114
:101C6400BF0BAE1760F0E0E0EA93A091C00BAF5F4A
:101C7400A093C00BCBDFA881AA3009F44CC0E0913B
:101C8400BF0BEF5FE093BF0BC09AA881AADFC09897
:101C940042C0BA93AA931A93A981BA81ED91A983F8
:101CA400BA831E2FE03019F0A12FD3DFF5CF1881AE
:101CB40023960895AA93129A119ABF9AE091640008
:101CC400E860E0936400BA9AB89A139AC298C098EC
:101CD4001B98E881E093C10BE058E093BD0BE881C9
:101CE400E054E093BE0BA4E10E944A110E948F11BC
:101CF4000E948F110E948F11A0E248DF80E991E0D9
:101D04000197F1F7A8E26DDFA4E06BDFA5E869DFD6
:101D1400A6E067DF8CDF21960895BA93AA931A93FD
:101D24000A93AA81BB8112960E947212309729F1FC
:101D3400AA81BB8114960E9472128F01309761F0C0
:101D44000230E0E01E07C0F0F80131978F01AA814C
:101D5400BB811496ED93FC93AA81BB8112960E94D9
:101D640070113197AC81A083AA81BB810E94721249
:101D7400FF2312F00E94701106C0AA81BB81EFEF0D
:101D8400FFEFED93FC931981088125960895BA938A
:101D9400AA9326970E94AC1210E0AC85BD85E0E0C2
:101DA400F0E0ED93FC93EA89FB893196EA8BFB8B97
:101DB4003197E4912E2FE03011F40C94F80FE12FB9
:101DC400E03039F4253211F411E002C00E94971179
:101DD4000CC1E130A9F4253219F40E94971104C111
:101DE40012E040E000E02D3211F401E0FEC02B329D
:101DF40011F44BE2FAC0203211F440E2F6C002C002
:101E0400E23039F450E013E0203311F40068EDC0FF
:101E140004C0E33011F00C94F70F203310F02A3390
:101E240008F007C0AAE05A9F502DE22FE0535E0F3E
:101E3400DCC0E22FE33649F40E949E11E889F98957
:101E4400A481AA930E94A411CFC0E33741F40E9455
:101E54009E110E94AA110E9434101E2F0AC0E0375E
:101E640061F40E949E110E94AA110E9440101E2F2C
:101E7400086002600F7730E035C0E43611F0E936CF
:101E840011F4046002C0E53731F4E4ECF0E0EE83D1
:101E9400FF8315E00DC0E83511F4086004C0E8378D
:101EA40011F00C94F60FEEECF0E0EE83FF8314E0F7
:101EB40002FF14C00E949E110E94B411AB85AA2394
:101EC4003AF4EA85FB850E942212EA87FB874DE2F9
:101ED400403011F01F5F01C00B7F04C00E949E11AF
:101EE4000E94B41100FD11C0151778F407FF08C053
:101EF40002FF04C00B7F242F115001C020E301C056
:101F040020E20E9497115150EFCF312F01FF17C0EB
:101F14003030A1F003FF06C0EE81FF812591EE83EE
:101F2400FF8305C0AE81BF812D91AE83BF830E9424
:101F34009711503009F051503150EACF4BC020E393
:101F4400EE81FF810E947612E887F987EE81FF8196
:101F54003296EE83FF83E885F985AA85BB85AE17A3
:101F6400BF0750F02F5FA885B985EA85FB85EA1B7A
:101F7400FB0BEA87FB87EFCF2A3328F003FF02C06D
:101F8400295F01C0295D04FD1AC0213320F4A8850E
:101F9400B985119709F409C0531710F000FF01C067
:101FA40013C020E207FF0BC020E3006102FF07C05B
:101FB4000B7F4A930E94A411503009F051500E94A3
:101FC4009711503009F051503150A885B9851297B6
:101FD40008F0B5CF00FF08C0503031F05150E0E2B6
:101FE400EA930E94A411F8CF10E0DDCEAC85BD8544
:101FF4000E9472120E94B31264960895FF92F82E02
:1020040026970E94AE120E94BC11309719F4EFEF8C
:10201400FFEF23C0DE0116960E941E128D010E945E
:10202400BC11EE83FF83E0E0E887E987DE011A96BE
:102034000E941E120E947212FA93EA931A930A9350
:10204400EFE8FEE0FA93EA93DE011A96A0DE9F0120
:10205400AE81BF81E0E0EC93F9010E94B5122A96AB
:10206400FF900895BA93AA93A991B991EE27FF27F7
:102074006D91662311F03196FBCF0895BA93AA931C
:10208400AA27BB27E991F9910590002011F0119638
:10209400FBCFFD0108950E944B0EE0E0EA93A1E01E
:1020A4000C94080EE0918B0BF0E0309708950E9499
:1020B4004B0EE7E0EA93A1E00E94080EE1E0E4158C
:1020C4000895E0E0EA93A1E00C94080EF0E0E1301A
:1020D400A0E0FA070895AFEF0E942B0EAFEF0C9427
:1020E4002B0EEA93A0E00C94080EE1E00E943A1251
:1020F400E0210895F401E85EF340E093720BF0935D
:10210400730B0895EA93A1E00C94080EE4E9FBE054
:10211400FA93EA930895FF27662777270E947A1295
:1021240084E00E9400102896A4E9BBE00C944B0EB6
:102134000E94C811A8E80C94FC11A091860BE1E060
:102144000E943A12A0918A0BEA230895F0E0309796
:102154000895FA93EA93E02F0E942F120E947A12B4
:1021640084E00E94001028960895A4E9BBE00E9430
:102174004B0E1A93A02F0E942803DACFA12F0E949E
:10218400FC110C94D71110E4E091860B1E2BE09106
:10219400870B1E2BE091880B1E2BCACFE091870B77
:1021A400F0E008952197E0E1E8830E94AC121091D9
:1021B4008C0B00918D0B1F3108950E94190EA6CF30
:1021C4000E942F120E947A1284E00E940010289626
:1021D400A4E9BBE00C944B0EAAE30E942B0E96CF0D
:1021E400EDE4F1E0FA93EA9308950E944B0EEE8138
:1021F400E150EE830895EDE6F2E0FA93EA93EFE11D
:10220400F0E060E070E00E947A1284E00E94001026
:102214002896A4E9BBE00E944B0EE8E062CFA4E953
:10222400BBE00E944B0EECE05CCFEFE1F0E060E03D
:1022340070E00E947A1284E00E9400102896EFCF8A
:10224400E0918E0BF0918F0B0895D998E0E0E09324
:102254009B00E0939A00E0939D00E0939800E09344
:1022640099000895D99AE0E0E0939B00E8EDE093AB
:102274009A00E6E0E0939D00E0E0E0939800E8E057
:10228400E0939900E0E0E093720BE093730B089500
:10229400B0E00C941412F0E00E948F120895AA2466
:1022A400BB24CC24DD240895A091860BE1E00E9498
:1022B4003A120E2E0895E0938E0BF0938F0B08952F
:1022C4000A921A92FA926A937A938A939A93AA93A5
:1022D400BA93EA93FA93EFB7EA930895ED91FD91D7
:1022E4003196FE93EE930895E091B40BE1BFA2E022
:1022F400CFCFE4E0E0936200A8EEB3E00E941412B2
:10230400E0E0E0936200A8EEB3E00C9414120E94A3
:102314004B0EA8EEB3E00C941412A0E30E94C80D77
:1023240080E991E00197F1F708952A93AD85BE8580
:10233400EF85F88909950895E889F9893497E88B38
:10234400F98B0895AD85BE85EF85F88909950895C3
:10235400A889B98914960E947212EE83FF83AE8114
:10236400BF810895A889B98914960E947212EA87D8
:10237400FB870895DE011C960E941E120E947212B1
:102384000895969897988E9A8F9815C08F988E98DE
:10239400EE270000879B0895869B089504D08F9AAA
:1023A40002D08E9AE1E06BE607C08F9A8E9A03D032
:1023B4008E98F9DF8F9865ED6A95F1F7089578E0C6
:1023C4008E98F1DF869BFECFEEDF88948799089480
:1023D4008E9AF1DFEE1F7A9599F77A2F772311F40D
:1023E4008F9801C08F9ADFDF8E98E5DF8E9ADBDF4E
:1023F4008F98D9CF78E0AA0F10F48F9801C08F9AE4
:10240400DADF8E98D0DF869BFECFCDDF8E9A7A9569
:1024140091F78F98C8DF8E98CEDFE1E08799EE2799
:102424008E9AC1CF109639F080EA9FE00197F1F7B8
:10243400A8951197C9F708950024AF0DB01D08950C
:10244400F195E195F0400895F695E795F695E795B1
:10245400F695E795F695E7950895FE2FFF0FFF0B88
:102464006F2F7F2F08956F2F660F660B762F0895B9
:10247400EA17E1E009F0EE270895EA17E1E009F42C
:10248400EE270895EE23E1E009F0EE2708950024F5
:10249400112490E1AA0FBB1F001C111C0E1A1F0A65
:1024A40018F40E0E1F1E01C0A1609A9599F7FD0144
:1024B400D001089507D0EBDF0EF4C2DF0895E7DF03
:1024C400FD010895E894F7FF02C0BADF6894B7FFEE
:1024D40006C0A095B095119600F8039400FA0895EB
:1024E400ED91FC91119708950590F491E02D0895D4
:1024F4007A936A93FA93EA930895119602D0FE2F81
:102504001197E199FECFFF93FFB7F894AEBBBFBB21
:10251400E09AEDB3FFBFFF91089507D01196EF93B2
:10252400EF2F03D0EF9111970895E19B02C0A89576
:10253400FCCF9FB7F894AEBBBFBBE09A8DB3E8174E
:1025440019F0EDBBE29AE19A9FBF089500240A16A0
:102554000B0608955A934A933A932A931A930A932B
:1025640008955D814C813B812A81198108810895F8
:00000001FF
